:100000000C942A000C9447000C9447000C94470071
:100010000C9447000C9447000C941D0E0C94470060
:100020000C9447000C9447000C94DF0E0C94120FB4
:100030000C9447000C9447000C9447000C94470024
:100040000C9447000C9447000C9447000C94470014
:100050000C94470011241FBECFE5D8E0DEBFCDBF12
:1000600011E0A0E6B0E0E6E7F4E202C005900D92F0
:10007000AE37B107D9F711E0AEE7B1E001C01D928C
:10008000AC38B107E1F70E94450F0C9439120C947B
:100090000000EF92FF920F931F937B018C0120E0F1
:1000A00030E040E05FE40E94F50388238CF0C80153
:1000B000B70120E030E040E05FE40E94C1010E940F
:1000C00055049B01AC01205030404040504806C0D0
:1000D000C801B7010E9455049B01AC01B901CA01D6
:1000E0001F910F91FF90EF900895A0E0B0E0EBE733
:1000F000F0E00C940212DC012B01FA019C91923089
:1001000008F439C1EB018881823008F433C194309E
:1001100069F4843009F02FC111969C91119789815F
:10012000981709F428C1A5E7B0E025C1843009F487
:1001300021C18230A9F4923009F01DC19A01AD01AC
:1001400088E0EA010990AE01E90109929E0181501F
:10015000C1F7E201898111969C918923818308C1AD
:10016000923009F407C112962D903C901397EB0141
:100170008A819B811496AD90BD90CD90DC901797AD
:10018000EC80FD800E811F819101281B390BB90184
:1001900037FF04C066277727621B730B6032710537
:1001A0000CF061C0121613066CF537014801062EDB
:1001B00004C096948794779467940A94D2F721E0C8
:1001C00030E040E050E004C0220F331F441F551FB1
:1001D0006A95D2F721503040404050402E213F21B7
:1001E00040235123211531054105510521F021E01E
:1001F00030E040E050E079018A01E628F72808293C
:1002000019293CC0232BD1F1260E371E350146019A
:10021000062E04C096948794779467940A94D2F734
:1002200021E030E040E050E004C0220F331F441FC3
:10023000551F6A95D2F721503040404050402A2146
:100240003B214C215D21211531054105510521F04E
:1002500021E030E040E050E059016A01A628B728CB
:10026000C828D9280BC0821593052CF01C01AA249C
:10027000BB24650103C0EE24FF24870111969C91E5
:10028000D20111968C91981709F445C0992339F041
:10029000A80197012A193B094C095D0906C0A6016E
:1002A00095012E193F09400B510B57FD08C01182D3
:1002B0003382228224833583468357831DC081E0A5
:1002C00081833382228288279927DC01821B930B4A
:1002D000A40BB50B84839583A683B7830DC0220F2F
:1002E000331F441F551F24833583468357838281E0
:1002F000938101979383828324813581468157813D
:10030000DA01C9010197A109B1098F5F9F4FAF4F72
:10031000BF4328F30BC0918333822282EA0CFB1C7B
:100320000C1D1D1DE482F5820683178383E0808304
:10033000248135814681578157FF1AC0C901AA27F8
:1003400097FDA095BA2F81709070A070B0705695EF
:10035000479537952795822B932BA42BB52B848318
:100360009583A683B7838281938101969383828349
:10037000DF0101C0D201CD01CDB7DEB7E2E10C94BF
:100380001E12A0E2B0E0E7ECF1E00C940E126983DB
:100390007A838B839C832D833E834F835887E9E048
:1003A000EE2EF12CEC0EFD1ECE010196B7010E943F
:1003B00046068E010F5E1F4FCE010596B8010E94C2
:1003C00046068A8991E089278A8BC701B801AE0168
:1003D000475E5F4F0E9475000E947105A096E6E09F
:1003E0000C942A12A0E2B0E0E8EFF1E00C940E12B7
:1003F00069837A838B839C832D833E834F835887C5
:10040000F9E0EF2EF12CEC0EFD1ECE010196B701A6
:100410000E9446068E010F5E1F4FCE010596B80161
:100420000E944606C701B801AE01475E5F4F0E94B9
:1004300075000E947105A096E6E00C942A12A0E2D5
:10044000B0E0E5E2F2E00C94021269837A838B83D8
:100450009C832D833E834F835887CE010196BE0136
:10046000675F7F4F0E944606CE010596BE016F5E14
:100470007F4F0E9446069985923088F089898230A4
:10048000C8F0943019F4823051F404C0843029F457
:10049000923081F485E790E0C6C0923049F420E0C4
:1004A0009A858A89981321E02A87CE010996BBC0D4
:1004B000823049F420E09A858A89981321E02A8BBA
:1004C000CE014196B0C02D843E844F8458886D88FB
:1004D0007E888F88988CEE24FF248701AA24BB2471
:1004E000650140E050E060E070E0E0E0F0E0C10174
:1004F00081709070892BE9F0E60CF71C081D191D1E
:100500009A01AB012A0D3B1D4C1D5D1D80E090E062
:10051000A0E0B0E0E614F7040805190520F481E036
:1005200090E0A0E0B0E0BA01A901480F591F6A1F8E
:100530007B1FAA0CBB1CCC1CDD1C97FE08C081E0F5
:1005400090E0A0E0B0E0A82AB92ACA2ADB2A3196B6
:10055000E032F10549F0660C771C881C991C569412
:10056000479437942794C3CFFA85EA892B893C892D
:100570008B859C85280F391F2E5F3F4F17C0CA01FE
:1005800081709070892B61F016950795F794E79428
:1005900080E090E0A0E0B0E8E82AF92A0A2B1B2BC3
:1005A00076956795579547952F5F3F4F77FDE7CF36
:1005B0000CC0440F551F661F771F17FD4160EE0CDE
:1005C000FF1C001F111F21503040403090E05907A0
:1005D00090E0690790E4790760F32B8F3C8FDB0193
:1005E000CA018F779070A070B07080349105A1051A
:1005F000B10561F447FD0AC0E114F10401051105DC
:1006000029F0405C5F4F6F4F7F4F40781A8EFE1786
:1006100011F081E08A8F4D8F5E8F6F8F78A383E01A
:10062000898FCE0149960E947105A096E2E10C9453
:100630001E12A8E1B0E0EFE1F3E00C940A12698326
:100640007A838B839C832D833E834F835887B9E0C5
:10065000EB2EF12CEC0EFD1ECE010196B7010E948F
:1006600046068E010F5E1F4FCE010596B8010E940F
:1006700046062985223008F47EC03989323010F4CC
:10068000B8017CC08A859A8989278A87243011F02D
:10069000223031F4231709F06EC065E770E06EC0B8
:1006A000343039F41D861E861F86188A1C861B86E8
:1006B00004C0323021F484E08987B7015FC02B8504
:1006C0003C858B899C89281B390B3C872B87ED84C3
:1006D000FE840F851889AD88BE88CF88D88CEA142F
:1006E000FB040C051D0540F4EE0CFF1C001F111F40
:1006F000215030403C872B8720E030E040E050E044
:1007000080E090E0A0E0B0E460E070E0EA14FB0478
:100710000C051D0540F0282B392B4A2B5B2BEA18C2
:10072000FB080C091D09B695A79597958795EE0CC2
:10073000FF1C001F111F6F5F7F4F6F31710531F775
:10074000DA01C9018F779070A070B0708034910584
:10075000A105B10561F427FD0AC0E114F10401050A
:10076000110529F0205C3F4F4F4F5F4F20782D87B8
:100770003E874F87588BBE01675F7F4FCB010E943A
:1007800071056896EAE00C942612A8E1B0E0EBEC63
:10079000F3E00C940E1269837A838B839C832D8300
:1007A0003E834F83588789E0E82EF12CEC0EFD1E26
:1007B000CE010196B7010E9446068E010F5E1F4FC3
:1007C000CE010596B8010E9446068985823040F028
:1007D0008989823028F0C701B8010E94BE0601C095
:1007E0008FEF6896E6E00C942A12A8E1B0E0EBEFF8
:1007F000F3E00C940E1269837A838B839C832D83A0
:100800003E834F83588789E0E82EF12CEC0EFD1EC5
:10081000CE010196B7010E9446068E010F5E1F4F62
:10082000CE010596B8010E9446068985823040F0C7
:100830008989823028F0C701B8010E94BE0601C034
:100840008FEF6896E6E00C942A12A8E1B0E0EBE2A4
:10085000F4E00C940E1269837A838B839C832D833E
:100860003E834F83588789E0E82EF12CEC0EFD1E65
:10087000CE010196B7010E9446068E010F5E1F4F02
:10088000CE010596B8010E9446068985823040F067
:100890008989823028F0C701B8010E94BE0601C0D4
:1008A00081E06896E6E00C942A12ACE0B0E0EBE55B
:1008B000F4E00C94121269837A838B839C83CE01BB
:1008C0000196BE016B5F7F4F0E9446068D8182308C
:1008D00061F1823050F1843021F48E81882351F10E
:1008E0002EC02F81388537FD20C06E812F31310514
:1008F0001CF06623F9F023C08EE190E0821B930B7D
:1009000029853A854B855C8504C056954795379572
:1009100027958A95D2F76623B1F05095409530958A
:1009200021953F4F4F4F5F4F0EC020E030E040E039
:1009300050E009C02FEF3FEF4FEF5FE704C020E02A
:1009400030E040E050E8B901CA012C96E2E00C9496
:100950002E12A8E0B0E0EFEAF4E00C940A127B015A
:100960008C01611571058105910519F482E0898377
:1009700060C083E089838EE1C82ED12CDC82CB82DB
:10098000ED82FE820F831887C801B7010E942205FD
:10099000FC013197F7FF3BC0222733272E1B3F0B6B
:1009A00057016801022E04C0D694C794B794A79447
:1009B0000A94D2F740E050E060E070E081E090E01F
:1009C000A0E0B0E004C0880F991FAA1FBB1F2A95A2
:1009D000D2F70197A109B1098E219F21A023B1234C
:1009E0000097A105B10521F041E050E060E070E022
:1009F0004A295B296C297D294D835E836F83788723
:100A00008EE190E08E1B9F0B9C838B8312C03097EE
:100A100081F00E2E04C0EE0CFF1C001F111F0A9463
:100A2000D2F7ED82FE820F831887CE1ADF0ADC82AE
:100A3000CB821A82CE0101960E9471052896EAE0C7
:100A40000C942612EF92FF920F931F937B018C015F
:100A500080E0E81680E0F80681E0080780E01807EB
:100A600088F48FEFE816F1040105110531F028F044
:100A700088E090E0A0E0B0E017C080E090E0A0E067
:100A8000B0E012C080E0E81680E0F80680E00807D9
:100A900081E0180728F088E190E0A0E0B0E004C011
:100AA00080E190E0A0E0B0E020E230E040E050E003
:100AB000281B390B4A0B5B0B04C016950795F7945E
:100AC000E7948A95D2F7F701E358FF4F8081281BFE
:100AD000310941095109C9011F910F91FF90EF9010
:100AE0000895DF92EF92FF920F931F93FC01E48031
:100AF000F58006811781D1808081823048F480E0C2
:100B000090E0A0E1B0E0E82AF92A0A2B1B2BA5C04F
:100B1000843009F49FC0823021F4EE24FF24870141
:100B200005C0E114F1040105110519F4E0E0F0E05D
:100B300096C0628173819FEF623879070CF05BC0C9
:100B400022E83FEF261B370B2A3131052CF020E03D
:100B500030E040E050E02AC0B801A701022E04C0F6
:100B600076956795579547950A94D2F781E090E07E
:100B7000A0E0B0E004C0880F991FAA1FBB1F2A95F0
:100B8000D2F70197A109B1098E219F21A023B1239A
:100B90000097A105B10521F081E090E0A0E0B0E070
:100BA0009A01AB01282B392B4A2B5B2BDA01C901A7
:100BB0008F779070A070B07080349105A105B10559
:100BC00039F427FF09C0205C3F4F4F4F5F4F04C0EF
:100BD000215C3F4F4F4F5F4FE0E0F0E02030A0E05E
:100BE0003A07A0E04A07A0E45A0710F0E1E0F0E07D
:100BF00079018A0127C06038710564F5FB01E1586D
:100C0000FF4FD801C7018F779070A070B07080340B
:100C10009105A105B10539F4E7FE0DC080E490E02F
:100C2000A0E0B0E004C08FE390E0A0E0B0E0E80E08
:100C3000F91E0A1F1B1F17FF05C016950795F7948D
:100C4000E794319687E016950795F794E7948A958F
:100C5000D1F705C0EE24FF248701EFEFF0E06E2FFF
:100C6000679566276795902F9F77D794DD24D79453
:100C70008E2F8695492F462B582F5D29B701CA0123
:100C80001F910F91FF90EF90DF900895FC01DB0121
:100C9000408151812281622F6F7770E0221F2227CD
:100CA000221F9381892F880F822B282F30E0991FD4
:100CB0009927991F11969C93119721153105A9F534
:100CC000411551056105710511F482E037C082E8D4
:100CD0009FEF13969C938E9312979A01AB0167E056
:100CE000220F331F441F551F6A95D1F783E08C9361
:100CF0000DC0220F331F441F551F12968D919C91DA
:100D00001397019713969C938E931297203080E04F
:100D1000380780E0480780E4580758F314962D936D
:100D20003D934D935C93179708952F3F310579F4C8
:100D3000411551056105710519F484E08C930895FE
:100D400064FF03C081E08C9312C01C9210C02F5727
:100D5000304013963C932E93129783E08C9387E058
:100D6000440F551F661F771F8A95D1F7706414963C
:100D70004D935D936D937C93179708951F93DC01BA
:100D8000FB019C91923008F447C08081823008F4C6
:100D900043C0943051F411961C91843099F58181AF
:100DA000682F70E0611B71093FC0843021F09230E0
:100DB00031F48230B9F18181882389F12DC01196F7
:100DC0001C9111978230F1F081811817D9F4129695
:100DD0002D913C911397828193818217930794F010
:100DE00028173907BCF014968D919D910D90BC91F8
:100DF000A02D2481358146815781281739074A075C
:100E00005B0718F4112341F00AC082179307A40767
:100E1000B50740F4112319F061E070E005C06FEFF1
:100E20007FEF02C060E070E0CB011F910895DF9377
:100E3000CF93CDB7DEB72E970FB6F894DEBF0FBEB7
:100E4000CDBF83E062E041E00E94900A80E090E044
:100E5000A0E0B0E48B879C87AD87BE876B857C85DF
:100E60008D859E8520E030E04AEF54E40E941F0209
:100E7000DC01CB018F839887A987BA876F8178853A
:100E800089859A8520E030E040E85FE30E942504F0
:100E900088232CF481E090E09E838D833FC06F8196
:100EA000788589859A8520E03FEF4FE757E40E94D7
:100EB000C50318164CF56B857C858D859E8520E0D5
:100EC00030E040E251E40E941F02DC01CB01BC0192
:100ED000CD010E944900DC01CB019E838D830FC0B0
:100EE00088EC90E09C838B838B819C810197F1F748
:100EF0009C838B838D819E8101979E838D838D81C1
:100F00009E81009769F714C06F81788589859A85DD
:100F10000E944900DC01CB019E838D838D819E81DF
:100F20009A83898389819A810197F1F79A838983CA
:100F300083E062E040E00E94900A2E960FB6F8949B
:100F4000DEBF0FBECDBFCF91DF910895DF93CF936A
:100F50000F92CDB7DEB7898383E060E040E00E9466
:100F6000900A83E061E040E00E94900A82E069819B
:100F70000E94980C0E9417070F90CF91DF9108955F
:100F8000DF93CF930F92CDB7DEB7898383E060E024
:100F900041E00E94900A83E061E040E00E94900AF4
:100FA00082E069810E94980C0E9417070F90CF91F0
:100FB000DF910895DF93CF93CDB7DEB72E970FB6AD
:100FC000F894DEBF0FBECDBF80E090E0A0EFB1E4AB
:100FD0008B879C87AD87BE876B857C858D859E853D
:100FE00020E030E04AEF54E40E941F02DC01CB0114
:100FF0008F839887A987BA876F81788589859A8535
:1010000020E030E040E85FE30E94250488232CF4D0
:1010100081E090E09E838D833FC06F8178858985D4
:101020009A8520E03FEF4FE757E40E94C50318166A
:101030004CF56B857C858D859E8520E030E040E217
:1010400051E40E941F02DC01CB01BC01CD010E94D2
:101050004900DC01CB019E838D830FC088EC90E0BA
:101060009C838B838B819C810197F1F79C838B837D
:101070008D819E8101979E838D838D819E810097B6
:1010800069F714C06F81788589859A850E94490027
:10109000DC01CB019E838D838D819E819A83898320
:1010A00089819A810197F1F79A8389838CE30E9461
:1010B000A6078CE00E94A60781E00E94A6072E9654
:1010C0000FB6F894DEBF0FBECDBFCF91DF9108956C
:1010D000DF93CF9300D00F92CDB7DEB79B838A8387
:1010E000198219820EC08981282F30E08A819B8164
:1010F000FC01E20FF31F80810E94C00789818F5F8E
:1011000089838981282F30E08A819B81FC01E20F4D
:10111000F31F8081882339F70F900F900F90CF91A4
:10112000DF910895DF93CF93CDB7DEB761970FB608
:10113000F894DEBF0FBECDBF6E877F87888B998BFB
:101140001B821A828E859F85A889B9890097A1057F
:10115000B10521F480E30E94C0074CC08E859F85B5
:10116000A889B989BB230CF045C08E859F85A889C5
:10117000B989B095A095909581959F4FAF4FBF4F7E
:101180008E879F87A88BB98B8DE20E94C00732C0E3
:101190008E859F85A889B9892AE030E040E050E03B
:1011A000BC01CD010E94B111DC01CB018B838A818E
:1011B000282F332727FD30958B81482F405DCE01A6
:1011C0000496FC01E20FF31F40838E859F85A8895A
:1011D000B9892AE030E040E050E0BC01CD010E9436
:1011E000B111DA01C9018E879F87A88BB98B8A81DB
:1011F0008F5F8A838E859F85A889B9890097A1050D
:10120000B10531F68A818150898310C08981282FE8
:10121000332727FD3095CE010496FC01E20FF31F22
:1012200080810E94C00789818150898389818823B8
:101230006CF761960FB6F894DEBF0FBECDBFCF91AD
:10124000DF910895DF93CF9300D00F92CDB7DEB733
:101250008A836B838A81882319F48B81898306C0F2
:101260008A81813019F48B81805C898389818068CF
:10127000898389810E94A6070F900F900F90CF91CC
:10128000DF910895DF93CF93CDB7DEB728970FB6E0
:10129000F894DEBF0FBECDBF9D838C836E834F83DA
:1012A00028878E81882F90E0880F991F880F991FBB
:1012B000880F991F8B838B8180648B838B810E9425
:1012C000A6071A8219820FC029813A818C819D81DB
:1012D000FC01E20FF31F80810E94C00789819A817F
:1012E00001969A83898389819A818830910564F374
:1012F0008F8168850E9422098E810E94C0072896EE
:101300000FB6F894DEBF0FBECDBFCF91DF91089529
:10131000DF93CF93CDB7DEB729970FB6F894DEBF32
:101320000FBECDBF89836A834B838B81282F30E02A
:101330003987288788859985009709F475C028859D
:1013400039852130310509F0E2C08981282F30E04C
:101350003F832E838E819F818130910549F12E81BB
:101360003F81223031052CF48E819F81009761F0FE
:10137000CEC02E813F812230310571F18E819F8157
:1013800083309105E9F1C3C0AAE3B0E0EAE3F0E0FD
:101390008081482F8A81282F30E081E090E0022E62
:1013A00002C0880F991F0A94E2F7842B8C93AFC078
:1013B000A7E3B0E0E7E3F0E08081482F8A81282F9F
:1013C00030E081E090E0022E02C0880F991F0A945D
:1013D000E2F7842B8C939BC0A4E3B0E0E4E3F0E05D
:1013E0008081482F8A81282F30E081E090E0022E12
:1013F00002C0880F991F0A94E2F7842B8C9387C050
:10140000A1E3B0E0E1E3F0E08081482F8A81282F5A
:1014100030E081E090E0022E02C0880F991F0A940C
:10142000E2F7842B8C9373C08981282F30E03D83B1
:101430002C838C819D818130910559F12C813D81D6
:10144000223031052CF48C819D81009769F05FC0BA
:101450002C813D812230310589F18C819D81833041
:10146000910509F440C053C0AAE3B0E0EAE3F0E01C
:101470008081482F8A81282F30E081E090E0022E81
:1014800002C0880F991F0A94E2F7809584238C93F9
:101490003EC0A7E3B0E0E7E3F0E08081482F8A8117
:1014A000282F30E081E090E0022E02C0880F991FC3
:1014B0000A94E2F7809584238C9329C0A4E3B0E0DA
:1014C000E4E3F0E08081482F8A81282F30E081E03A
:1014D00090E0022E02C0880F991F0A94E2F78095CF
:1014E00084238C9314C0A1E3B0E0E1E3F0E08081B9
:1014F000482F8A81282F30E081E090E0022E02C040
:10150000880F991F0A94E2F7809584238C9329967B
:101510000FB6F894DEBF0FBECDBFCF91DF91089517
:10152000DF93CF93CDB7DEB729970FB6F894DEBF20
:101530000FBECDBF89836A834B838B81282F30E018
:101540003987288788859985009709F475C028858B
:1015500039852130310509F0E2C08981282F30E03A
:101560003F832E838E819F818130910549F12E81A9
:101570003F81223031052CF48E819F81009761F0EC
:10158000CEC02E813F812230310571F18E819F8145
:1015900083309105E9F1C3C0ABE3B0E0EBE3F0E0E9
:1015A0008081482F8A81282F30E081E090E0022E50
:1015B00002C0880F991F0A94E2F7842B8C93AFC066
:1015C000A8E3B0E0E8E3F0E08081482F8A81282F8B
:1015D00030E081E090E0022E02C0880F991F0A944B
:1015E000E2F7842B8C939BC0A5E3B0E0E5E3F0E049
:1015F0008081482F8A81282F30E081E090E0022E00
:1016000002C0880F991F0A94E2F7842B8C9387C03D
:10161000A2E3B0E0E2E3F0E08081482F8A81282F46
:1016200030E081E090E0022E02C0880F991F0A94FA
:10163000E2F7842B8C9373C08981282F30E03D839F
:101640002C838C819D818130910559F12C813D81C4
:10165000223031052CF48C819D81009769F05FC0A8
:101660002C813D812230310589F18C819D8183302F
:10167000910509F440C053C0ABE3B0E0EBE3F0E008
:101680008081482F8A81282F30E081E090E0022E6F
:1016900002C0880F991F0A94E2F7809584238C93E7
:1016A0003EC0A8E3B0E0E8E3F0E08081482F8A8103
:1016B000282F30E081E090E0022E02C0880F991FB1
:1016C0000A94E2F7809584238C9329C0A5E3B0E0C7
:1016D000E5E3F0E08081482F8A81282F30E081E027
:1016E00090E0022E02C0880F991F0A94E2F78095BD
:1016F00084238C9314C0A2E3B0E0E2E3F0E08081A5
:10170000482F8A81282F30E081E090E0022E02C02D
:10171000880F991F0A94E2F7809584238C93299669
:101720000FB6F894DEBF0FBECDBFCF91DF91089505
:10173000DF93CF9300D000D00F92CDB7DEB78A836E
:101740006B838FEF89838A81282F30E03D832C8340
:101750004C815D814130510541F18C819D81823008
:10176000910534F42C813D812115310561F052C081
:101770004C815D814230510551F18C819D818330D6
:101780009105B9F147C0E9E3F0E08081282F30E00E
:101790008B81882F90E0A90102C0559547958A95C5
:1017A000E2F7CA018170898335C0E6E3F0E0808109
:1017B000282F30E08B81882F90E0A90102C0559539
:1017C00047958A95E2F7CA018170898323C0E3E3D4
:1017D000F0E08081282F30E08B81882F90E0A901F4
:1017E00002C0559547958A95E2F7CA0181708983B1
:1017F00011C0E0E3F0E08081282F30E08B81882F5A
:1018000090E0A90102C0559547958A95E2F7CA0173
:101810008170898389810F900F900F900F900F90A6
:10182000CF91DF910895DF93CF93CDB7DEB728979F
:101830000FB6F894DEBF0FBECDBF89836A838A815D
:10184000282F30E038872F838F8198850097C9F142
:101850002F8138852130310509F061C08981282F19
:1018600030E03E832D838D819E8181309105D1F0C2
:101870002D813E81223031052CF48D819E8100978F
:1018800061F04DC02D813E812230310581F08D8186
:101890009E818330910581F042C0EAE3F0E08FEF52
:1018A00080833DC0E7E3F0E08FEF808338C0E4E35E
:1018B000F0E08FEF808333C0E1E3F0E08FEF8083CF
:1018C0002EC08981282F30E03C832B838B819C8123
:1018D00081309105C9F02B813C81223031052CF4F7
:1018E0008B819C81009761F01AC02B813C81223052
:1018F000310571F08B819C818330910569F00FC0B7
:10190000EAE3F0E010820BC0E7E3F0E0108207C0EA
:10191000E4E3F0E0108203C0E1E3F0E010822896F7
:101920000FB6F894DEBF0FBECDBFCF91DF91089503
:10193000DF93CF9300D000D0CDB7DEB789836A8321
:101940008981282F30E03C832B838B819C818130DF
:101950009105D1F02B813C81223031052CF48B8113
:101960009C81009761F01EC02B813C8122303105A3
:1019700081F08B819C818330910581F013C0EBE372
:10198000F0E08A8180830EC0E8E3F0E08A81808302
:1019900009C0E5E3F0E08A81808304C0E2E3F0E07F
:1019A0008A8180830F900F900F900F90CF91DF91DD
:1019B0000895DF93CF9300D000D0CDB7DEB78A83F0
:1019C0008A81282F30E03C832B838B819C8181305E
:1019D0009105D1F02B813C81223031052CF48B8193
:1019E0009C81009761F01EC02B813C812230310523
:1019F00081F08B819C818330910581F013C0E9E3F4
:101A0000F0E0808189830EC0E6E3F0E08081898385
:101A100009C0E3E3F0E08081898304C0E0E3F0E003
:101A20008081898389810F900F900F900F90CF91C3
:101A3000DF910895DF93CF93CDB7DEB7AFE5B0E088
:101A4000EFE5F0E0808180688C93CF91DF9108957D
:101A5000DF93CF93CDB7DEB7AFE5B0E0EFE5F0E0D1
:101A600080818F778C93CF91DF910895DF93CF930F
:101A7000CDB7DEB7AEE4B0E0EEE4F0E08081887F81
:101A80008C93AEE4B0E0EEE4F0E0808182608C9371
:101A9000EFE4F0E01082CF91DF910895DF93CF93D0
:101AA00000D0CDB7DEB79A838983ECE4F0E089817A
:101AB0009A81918380830F900F90CF91DF91089549
:101AC000DF93CF93CDB7DEB7ECE4F0E08081918176
:101AD000CF91DF910895DF93CF9300D0CDB7DEB7DC
:101AE0009A838983E6E4F0E089819A8191838083F7
:101AF0000F900F90CF91DF910895DF93CF9300D097
:101B0000CDB7DEB79A838983EAE4F0E089819A81D0
:101B1000918380830F900F90CF91DF910895DF9391
:101B2000CF93CDB7DEB7AEE4B0E0EEE4F0E0808175
:101B300080648C93A9E5B0E0E9E5F0E08081806203
:101B40008C93CF91DF910895DF93CF93CDB7DEB71C
:101B5000A9E5B0E0E9E5F0E0808180628C93CF9167
:101B6000DF910895DF93CF93CDB7DEB7A9E5B0E05D
:101B7000E9E5F0E080818F7D8C93CF91DF9108952E
:101B8000DF93CF9300D00F92CDB7DEB789838981E1
:101B9000282F30E03B832A838A819B81009769F05C
:101BA0002A813B812130310579F4AEE4B0E0EEE4E6
:101BB000F0E080818F7B8C9307C0AEE4B0E0EEE470
:101BC000F0E0808180648C930F900F900F90CF9104
:101BD000DF910895DF93CF93CDB7DEB7E6E4F0E071
:101BE00080819181CF91DF910895DF93CF9300D0D1
:101BF000CDB7DEB79A838983E6E4F0E089819A81E4
:101C0000918380830F900F90CF91DF910895DF93A0
:101C1000CF9300D0CDB7DEB79A83898389819A812B
:101C2000009731F089819A8190937F0180937E01A2
:101C30000F900F90CF91DF9108951F920F920FB6E2
:101C40000F9211242F933F934F935F936F937F9342
:101C50008F939F93AF93BF93EF93FF93DF93CF93B4
:101C6000CDB7DEB780917E0190917F01009729F07A
:101C7000E0917E01F0917F010995CF91DF91FF9175
:101C8000EF91BF91AF919F918F917F916F915F91F4
:101C90004F913F912F910F900FBE0F901F9018956D
:101CA000DF93CF93CDB7DEB7A3E5B0E0E3E5F0E097
:101CB0008081887F8C93A3E5B0E0E3E5F0E080814C
:101CC00082608C93A3E5B0E0E3E5F0E0808180647E
:101CD0008C93A3E5B0E0E3E5F0E0808188608C932D
:101CE000A3E5B0E0E3E5F0E080818F7E8C93A3E58F
:101CF000B0E0E3E5F0E0808180628C93CF91DF91EA
:101D00000895DF93CF930F92CDB7DEB78983E2E5D5
:101D1000F0E0898180830F90CF91DF910895DF9368
:101D2000CF930F92CDB7DEB78983ECE5F0E08981E0
:101D300080830F90CF91DF910895DF93CF93CDB73C
:101D4000DEB7E2E5F0E08081CF91DF910895DF9387
:101D5000CF9300D00F92CDB7DEB79B838A831982D1
:101D60008A819B81009739F08A819B8190938101C0
:101D70008093800102C082E0898389810F900F9057
:101D80000F90CF91DF910895DF93CF9300D0CDB71F
:101D9000DEB78A8319828A81882F90E0982F88275E
:101DA00024E630E0B9010E949E11CB01898389812C
:101DB0000E948F0E0F900F90CF91DF9108951F9288
:101DC0000F920FB60F9211242F933F934F935F936F
:101DD0006F937F938F939F93AF93BF93EF93FF93F3
:101DE000DF93CF93CDB7DEB78091800190918101D1
:101DF000009729F0E0918001F09181010995CF9140
:101E0000DF91FF91EF91BF91AF919F918F917F9162
:101E10006F915F914F913F912F910F900FBE0F9057
:101E20001F9018951F920F920FB60F9211242F93A7
:101E30003F934F935F936F937F938F939F93AF9352
:101E4000BF93EF93FF93DF93CF93CDB7DEB780912E
:101E5000800190918101009729F0E0918001F0913B
:101E600081010995CF91DF91FF91EF91BF91AF91E2
:101E70009F918F917F916F915F914F913F912F91A2
:101E80000F900FBE0F901F901895DF93CF93CDB793
:101E9000DEB7E5970FB6F894DEBF0FBECDBF80E08A
:101EA00060E041E00E94880981E063E041E00E9437
:101EB000880983E066E040E00E94880982E061E0F2
:101EC0000E94130C83E060E041E00E94880983E0F7
:101ED00061E041E00E94880983E062E041E00E9405
:101EE00088090E94500E82E80E948F0E0E94360DD3
:101EF0000E94A40D0E941A0D0E94DA070E948F0D05
:101F000089E791E10E94070E1DAA8091890188232B
:101F100009F0C8C080E060E041E00E94900A80E0E3
:101F200090E0A0E2B1E489AB9AABABABBCAB69A9E2
:101F30007AA98BA99CA92BEA3AEA4AE250E40E94CA
:101F40001F02DC01CB018DA79EA7AFA7B8AB6DA583
:101F50007EA58FA598A920E030E040E85FE30E94CD
:101F6000250488231CF481E08CA791C06DA57EA573
:101F70008FA598A920E030E04FE753E40E94C50305
:101F800018160CF07BC069A97AA98BA99CA920E03E
:101F900030E04AE754E40E941903DC01CB0188A732
:101FA00099A7AAA7BBA768A579A58AA59BA520E0A4
:101FB00030E04AEF54E40E941F02DC01CB018CA305
:101FC0009DA3AEA3BFA36CA17DA18EA19FA120E084
:101FD00030E040E85FE30E94250488232CF481E090
:101FE00090E09BA38AA33FC06CA17DA18EA19FA17D
:101FF00020E03FEF4FE757E40E94C50318164CF569
:1020000068A579A58AA59BA520E030E040E251E4CF
:102010000E941F02DC01CB01BC01CD010E944900DE
:10202000DC01CB019BA38AA30FC088EC90E099A3AD
:1020300088A388A199A10197F1F799A388A38AA100
:102040009BA101979BA38AA38AA19BA1009769F7F3
:1020500024C06CA17DA18EA19FA10E944900DC013A
:10206000CB019BA38AA38AA19BA19F8F8E8F8E8D6C
:102070009F8D0197F1F79F8F8E8F0FC06DA57EA565
:102080008FA598A90E944900DC01CB018CA78CA5E3
:102090008D8F8D8D8A95F1F78D8F80E060E040E027
:1020A0000E94900A8091860190918701CC01A0E066
:1020B000B0E0BC01CD010E94A904DC01CB01BC0150
:1020C000CD0129E23CE54FE85CE30E941F02DC0100
:1020D000CB01BC01CD010E944900DC01CB018DABDD
:1020E00080E060E00E94220980E690E00E9468089B
:1020F0008091860190918701CC01A0E0B0E0BC0105
:10210000CD010E94920880E090E0A8ECB2E4898FB3
:102110009A8FAB8FBC8F698D7A8D8B8D9C8D20E0D3
:1021200030E04AEF54E40E941F02DC01CB018D8BAA
:102130009E8BAF8BB88F6D897E898F89988D20E0BB
:1021400030E040E85FE30E94250488232CF481E01E
:1021500090E09C8B8B8B3FC06D897E898F89988D99
:1021600020E03FEF4FE757E40E94C50318164CF5F7
:10217000698D7A8D8B8D9C8D20E030E040E251E4BA
:102180000E941F02DC01CB01BC01CD010E9449006D
:10219000DC01CB019C8B8B8B0FC088EC90E09A8B81
:1021A000898B89899A890197F1F79A8B898B8B8919
:1021B0009C8901979C8B8B8B8B899C89009769F7F5
:1021C00014C06D897E898F89988D0E944900DC0139
:1021D000CB019C8B8B8B8B899C89988B8F878F8570
:1021E00098890197F1F7988B8F8781E060E00E94D2
:1021F000220989E690E00E9468088DA9882F90E066
:10220000A0E0B0E0BC01CD010E94920880E090E027
:10221000A8ECB2E48B879C87AD87BE876B857C85F5
:102220008D859E8520E030E04AEF54E40E941F0235
:10223000DC01CB018F839887A987BA876F81788566
:1022400089859A8520E030E040E85FE30E9425041C
:1022500088232CF481E090E09E838D833FC06F81C2
:10226000788589859A8520E03FEF4FE757E40E9403
:10227000C50318164CF56B857C858D859E8520E001
:1022800030E040E251E40E941F02DC01CB01BC01BE
:10229000CD010E944900DC01CB019E838D830FC0DC
:1022A00088EC90E09C838B838B819C810197F1F774
:1022B0009C838B838D819E8101979E838D838D81ED
:1022C0009E81009769F721CE6F81788589859A85EF
:1022D0000E944900DC01CB019E838D838D819E810C
:1022E0009A83898389819A810197F1F79A838983F7
:1022F0000CCEDF93CF93CDB7DEB7809189018823D1
:1023000059F480E090E00E944E0D81E00E94C00DE3
:1023100081E0809389010FC080918901813059F457
:102320000E94EA0D909387018093860180E00E94CD
:10233000C00D10928901CF91DF91089597FB092E6E
:1023400007260AD077FD04D027D006D000201AF443
:10235000709561957F4F0895F6F7909581959F4F01
:10236000089597FB092E05260ED057FD04D028D0DE
:102370000AD0001C38F450954095309521953F4F78
:102380004F4F5F4F0895F6F7909580957095619542
:102390007F4F8F4F9F4F0895AA1BBB1B51E107C072
:1023A000AA1FBB1FA617B70710F0A61BB70B881FE5
:1023B000991F5A95A9F780959095BC01CD01089574
:1023C000A1E21A2EAA1BBB1BFD010DC0AA1FBB1F39
:1023D000EE1FFF1FA217B307E407F50720F0A21BAB
:1023E000B30BE40BF50B661F771F881F991F1A9418
:1023F00069F760957095809590959B01AC01BD0142
:10240000CF0108952F923F924F925F926F927F92E9
:102410008F929F92AF92BF92CF92DF92EF92FF92F4
:102420000F931F93CF93DF93CDB7DEB7CA1BDB0BA0
:102430000FB6F894DEBF0FBECDBF09942A88398845
:1024400048885F846E847D848C849B84AA84B9844C
:10245000C884DF80EE80FD800C811B81AA81B98158
:10246000CE0FD11D0FB6F894DEBF0FBECDBFED016C
:062470000895F894FFCF6F
:102476005469636B73203D200064697374616E63F5
:1024860065203D2000000000000000000000010261
:1024960002030303030404040404040404050505F9
:1024A60005050505050505050505050505060606D3
:1024B60006060606060606060606060606060606B6
:1024C60006060606060606060606060606070707A3
:1024D6000707070707070707070707070707070786
:1024E6000707070707070707070707070707070776
:1024F6000707070707070707070707070707070766
:102506000707070707070707070707070708080852
:102516000808080808080808080808080808080835
:102526000808080808080808080808080808080825
:102536000808080808080808080808080808080815
:102546000808080808080808080808080808080805
:1025560008080808080808080808080808080808F5
:1025660008080808080808080808080808080808E5
:1025760008080808080808080808080808080808D5
:0E2586000808080808080808080808080800DF
:00000001FF
